:020000040800F2
:10000000100B0020892B00083D47000841470008DD
:1000100045470008494700084D4700080000000018
:100020000000000000000000000000005147000830
:10003000554700080000000059470008D931000862
:10004000852B0008852B0008852B0008852B0008D0
:10005000852B0008852B0008852B000861340008DB
:10006000852B0008852B000825230008852B000818
:10007000852B0008852B0008852B0008852B0008A0
:10008000852B0008852B0008852B0008852B000890
:100090005D470008852B0008852B0008852B00088C
:1000A000852B0008852B0008852B0008852B000870
:1000B000852B0008852B0008852B0008852B000860
:1000C000852B0008852B0008852B0008852B000850
:1000D000852B0008852B0008852B0008852B000840
:1000E000852B0008852B0008852B000800000000E8
:1000F0000000000000000000000000000000000000
:1001000000000000000000005FF808F108B520B909
:10011000064B1B6801221A8208BD054B1B681B6831
:100120009847024B18680A3008BD00BF60060020DF
:100130005C06002008B520B9064B1B6801221A8214
:1001400008BD054B1B689B689847024B18680C302C
:1001500008BD00BF600600205C06002008B520B97D
:10016000274B1B6802221A8208BD0022254B1A80E9
:10017000234B1A68137813F07F0311D1537A13F0CD
:10018000200F02D002211F4A117013F0400F1D4BA7
:100190001A7814BF42F0010222F001021A7025E021
:1001A000012B29D0022B29D1537903F00F0213F030
:1001B000800F0DD0920002F1804202F5B842136820
:1001C00003F03003102B11D101220E4B1A700DE0F9
:1001D000930003F1804303F5B8431B6803F44053D5
:1001E000B3F5805F02D10122064B1A70064B1B68E3
:1001F0001B699847034808BD024808BD002008BD98
:1002000060060020AC0300205C060020F8B5254BFA
:100210001C68238A227ACBB9042A40D1224B1B784E
:10022000012B0ED1214B1A6892B2214B13445B0073
:1002300000221A6030211F4B19801B4B1A700426B4
:1002400029E010221B4B1A80072624E0A58AAB4226
:100250008CBF022604269D4228BF1D46A36928465E
:1002600098470746002002F00BFC014638462A4614
:1002700004F018FE0020294602F01EFC238A5B1BB6
:100280002382638A1D44658230220A4B1A804FF410
:100290004052094B1A80034B1B681E72F8BDA58A99
:1002A0000426D8E7600600203C010020505C004096
:1002B000023000202E0600202C06002008B50C4B32
:1002C0001B68DA780B49497891420AD3997851B979
:1002D000998851B99A72084B1B685B68984700204F
:1002E00008BD022008BD022008BD022008BD00BFD5
:1002F00060060020B80000205C06002010B5114CFC
:100300002368114A126892695879D978904723680E
:100310009A7A7AB180B91A7982B99B7883B90B4BF2
:100320001B68DB68984723685A79DA72DA781A739F
:10033000002010BD022010BD022010BD022010BD03
:10034000022010BD60060020380600205C06002058
:1003500010B5424B1A68137813F07F0305D1537A16
:1003600023F020035372002010BD022B6AD1538862
:10037000002B69D11379002B68D1537923F08000C9
:1003800013F0800F4FEA800101F1804101F5B8417F
:1003900019BF0C6804F03004096801F44054304976
:1003A0000978884254D2002C54D0927A002A53D033
:1003B00013F0800F12D0830003F1804303F5B8439C
:1003C0001B6803F03003102B36D1C4B2204602F074
:1003D00023FB2046302102F0ABFA2DE0840004F12B
:1003E000804404F5B844236803F44053B3F5805FB8
:1003F00022D190B91B4B93F82C1002F06BFB2368B1
:1004000023F4804323F070039BB283F4405343F4FE
:10041000004343F0800323600EE002F0E9FA236812
:1004200023F4804323F070039BB283F4405343F4DE
:10043000004343F0800323600B4B1B685B699847C4
:10044000002010BD022010BD022010BD022010BDF2
:10045000022010BD022010BD022010BD6006002049
:10046000B8000020340000205C06002010B52B4BA3
:100470001868437923F0800213F0800F4FEA82015D
:1004800001F1804101F5B84119BF0C6804F0300456
:10049000096801F44054224909788A4235D24188DA
:1004A000002934D1002C34D0817A002933D013F0C4
:1004B000800F12D0930003F1804303F5B8431A680C
:1004C00022F4E04222F0400292B282F0100242F4A2
:1004D000004242F080021A6011E0930003F1804371
:1004E00003F5B8431A6822F4804222F0700292B2F7
:1004F00082F4805242F4004242F080021A60094BBA
:100500001B689B699847002010BD022010BD022087
:1005100010BD022010BD022010BD00BF60060020EB
:10052000B80000205C06002008B5064B1B685A7A0C
:1005300042F020025A72044B1B68DB699847002086
:1005400008BD00BF600600205C060020054B1B684C
:100550005A8A18B989888A1A1A827047086810441A
:10056000704700BF6006002008B500200A4B93F8D2
:100570002C1002F0AFFA094B1B68187A082806D134
:100580004FF48052064B1A801022064B1A8009281D
:1005900014BF0020012008BD3400002060060020A8
:1005A0002C0600202E06002070B582B0984B1A68E9
:1005B00092B2984B13445B001C68974B1B681A7AE5
:1005C000092A18D0A4B2640004F1804404F5C044A0
:1005D00022781A70904D2B6862785A702E68A08825
:1005E00002F0AAFA70802E68208902F0A5FAB08085
:1005F000A2892B68DA80884B1B6801221A72DA887C
:10060000002A67D15C781A7812F07F022BD1092C6E
:1006100002D1FFF753FE38E0052C0CD193F90320EB
:10062000002A48DB9A78002A47D19A88002A46D1C6
:100630009B7A9BB345E0032C07D1DA78012A25D1B8
:100640009B881BBBFFF770FF1FE0012C1ED1DA78DF
:10065000012A1BD19A88CAB95B7A13F0200F15D0F2
:10066000FFF776FE11E0012A04D10B2C0ED1FFF723
:1006700045FE0AE0022A09D1012C02D1FFF768FEEB
:1006800003E0032C02D1FFF7F1FE38B1634B1B6886
:100690005B6920469847032815D0B0B95C4B1A68AF
:1006A00092B25F4B13445B0000221A6030225D4B14
:1006B0001A8006220AE0082208E0082206E0082242
:1006C00004E0082202E0092200E00822524B1B68E5
:1006D0001A72E9E05A78062A17D11A7812F07F0FB9
:1006E00040F087809B78012B03D14C4B1B68DA6963
:1006F00071E0022B03D1494B1B681A6A6BE0032B94
:1007000077D1464B1B685A6A65E0002A41D15A8866
:10071000002A6ED15A6822F47F42B2F5003F68D1B8
:100720001A7812F07F0204D19B88002B00F0BF8062
:100730005FE0012A0ED1394A126892695879002186
:100740009047002855D1344B1B689B7A002B40F012
:10075000B0804EE0022A4CD15B7903F00F0113F018
:10076000800F4FEA810202F1804202F5B84219BFC0
:10077000106800F03000126802F440502A4A1278E3
:10078000914236D213F0700F33D1002840F093809D
:100790002FE0082A05D11B7813F07F0F00F08D8021
:1007A00027E00A2A25D11A7802F07F02012A20D1F7
:1007B0009A7AF2B15A88E2B95A6822F47F42B2F5C5
:1007C000803F16D1154A12689269587900219047E6
:1007D000002874D00DE062B10F4C236800205882CD
:1007E0009A61904723681A8A4FF6FF718A4229D18D
:1007F00023E00A4B1B68084A12681B695078984727
:10080000032813D1044B1B6809221A724CE000BF65
:10081000505C0040043000206006002038060020B4
:10082000023000202E060020B8000020264B1B6856
:100830001A8A4FF6FF718A4202D109221A7233E0F6
:10084000022800D012B908221A722DE093F9001084
:10085000002923DAD98801910198824202D9019AAC
:100860001A8213E0914211D91849096891F82C10A5
:10087000914203D90021164A117007E092FBF1F072
:1008800001FB102212B90121114A11700F4A12689E
:1008900092F82C209A82FFF7B9FC05E003221A7225
:1008A0004FF440520B4B1A80FFF75EFE09E00A4AF4
:1008B00092E7094A90E7084A8EE7084A8CE7084A17
:1008C0008AE702B070BD00BF600600203806002035
:1008D0003C0100202C0600205D0100080D010008ED
:1008E0003501000870B5354B1C68237A022B56D0B1
:1008F000042B56D0032B01D0052B48D1228AA369A3
:10090000ABB1A2B1A58A954228BF154628469847A3
:100910000646238A5B1B2382638A2B446382002062
:1009200002F0BCF8014630462A4604F0D5FA238A84
:10093000002B3FD04FF44052214B1A80002001463B
:1009400002F0BAF830221F4B1A80238AA28A9A42F8
:1009500004D81A4B1B6803221A7214E023B1174BF8
:100960001B6805221A720EE0144B1B6806221A72CD
:10097000154B1A6892B2154B13445B0000221A60A3
:100980003022104B1A800D4B1B681A7A0CE0072B93
:1009900009D10F4B1B68DB689847082204E0082246
:1009A00002E0082200E00822044B1B681A72FFF7DD
:1009B000DBFD70BDA38A002BD6D1CAE760060020FC
:1009C0002C0600202E060020505C00400230002043
:1009D00038060020F0B40E4B1D7895B1002248F285
:1009E000800740F60F76D1B28B0003F1804303F508
:1009F000B8431C68394334402143196001329542A1
:100A0000F1D840F08000034B1860F0BC704700BF85
:100A1000B80000204C5C004008B5154B1A68137AEA
:100A2000022B01D0042B05D1FFF7F0FB104B1B6804
:100A30001A7A16E0062B13D15378052B0AD11378B6
:100A400013F07F0F06D1D078FFF7C4FF094B1B6866
:100A50001B6A9847084B1B689B689847082200E070
:100A60000822034B1B681A72FFF77EFD08BD00BF0A
:100A7000600600205C06002038060020704700BF9A
:100A800003783BB103460020013013F8012F002A00
:100A9000FAD170470020704710B50446FFF7F0FF09
:100AA000431E002B08DD0022A15CE05CA054E15451
:100AB0000132013B9A42F7DB10BD00BFF8B5024698
:100AC000C317002A73F10004B8BF40420025DFF8C5
:100AD00040E06E1C8EFB0047C417C4EBA70404EB78
:100AE0008407A0EB470730374F552046002C01DD27
:100AF0003546EEE73046002A73F1000402DAAE1CF8
:100B00002D230B5400238B550846FFF7C5FFF8BD76
:100B1000676666662DE9F84303460446C517002C50
:100B200075F10000B8BF5B420027DFF870C01046C7
:100B30004FF02E087E1C8CFB039E4FEAE379C9EB35
:100B4000AE0E0EEB8E0EA3EB4E0E0EF1300E01F834
:100B500007E0B24204BFBE1C01F802808CFB039781
:100B6000DB17C3EBA703002B01DD3746E2E7334673
:100B700000F1010EB64503DB12B101363022CA5432
:100B8000002C75F1000002DA2D238B55013600236D
:100B90008B550846FFF780FFBDE8F88367666666F9
:100BA00010B403783BB103460022013213F8014F21
:100BB000002CFAD100E0002200231044CA5CC25489
:100BC0000133002AFAD15DF8044B70470023CA5C58
:100BD000C2540133002AFAD1704700BF2DE9F04119
:100BE00080460F460846002105F014FAB8B10026E9
:100BF00000240F4D404604F0DDFB02460B46204624
:100C0000294604F02BFC04460D460136304604F01C
:100C1000F1FF394605F0E0F90028EBD101E00024AE
:100C2000034D2046294604F0DBFEBDE8F08100BFFD
:100C30000000F03F184B984219D8184B984218D82A
:100C4000174B984218D8174B984217D8164B984212
:100C500016D842F20F73984214D8B0F57A7F14D2A6
:100C6000632814D8092815D94FF07E5070470F48D3
:100C700070474FF0824070470D4870470D487047ED
:100C80000D4870474FF0814070470C4870474FF057
:100C90008040704700207047FFC99A3BFFE0F50590
:100CA0007F9698003F420F009F8601000000104190
:100CB0000000E0400000C0400000A04000004040B4
:100CC0002DE9F04F87B0029000910392002105F0CA
:100CD00083F9002878D0029A02F10040029005F0D2
:100CE000A3F90646FFF7A6FF05F09EF980462D23DF
:100CF000009A13700123019308F10203012B33DDE5
:100D0000019F47440137009A174408F1010B0493EF
:100D100001240025DFF8D0A0DFF8D090CDF81480B2
:100D20009846204604F066FF01465046FFF756FFFE
:100D300005F07AF996FBF0F300FB13635D1B89FB6A
:100D40000023C017C0EBA30095FBF0F505F13003BD
:100D500007F8013D5C4505D001344445E1D1DDF89B
:100D6000148001E0DDF8148008F10104019D009B6E
:100D70002B442E221A55304604F03CFF01460298BF
:100D800004F082FE039ECEB1174FDDF80090019B68
:100D90009944394604F082FF824605F045F9013452
:100DA00000F1300309F8043004F024FF01465046F6
:100DB00004F06AFEC8EB0403B342EADD009A15446E
:100DC0002C44002363700BE0029805F02DF90646D1
:100DD000FFF730FF05F028F98046002301938BE7E9
:100DE00007B0BDE8F08F00BF00002041676666666F
:100DF00003889BB2244A904212D002F500629042CE
:100E00000ED0B0F1804F0BD0A2F59832904207D0AF
:100E100002F58062904203D002F58062904203D1D5
:100E200023F070034A881343184A904225D002F5F4
:100E30008062904221D023F440739BB2CA8813434E
:100E400003808B8883850B8803850F4B98420FD0D6
:100E500003F5006398420BD003F54063984207D036
:100E600003F58063984203D003F58063984201D173
:100E70000B7A038601238382704703808B888385E6
:100E80000B880385F6E700BF002C014000100040EE
:100E900070B4038C23F001031B041B0C0384038C2C
:100EA0008488A4B2028B22F073021204120C0D8803
:100EB0002A4323F002031B041B0C4E880D89354383
:100EC000ADB22B43144DA8420FD005F50065A842E2
:100ED0000BD005F54065A84207D005F58065A8420E
:100EE00003D005F58065A8420ED123F008034D8993
:100EF0002B4323F004038D882B4324F44074CE89C4
:100F00008D893543ADB22C4384800283CA888286A2
:100F1000038470BC704700BF002C014030B4038CC8
:100F200023F010031B041B0C0384038C8488A4B2DD
:100F3000028B22F4E6421204120C0D8842EA0522CA
:100F400092B223F020031B041B0C0D8943EA051306
:100F50004D8843EA05139BB2114DA84203D005F515
:100F60000065A84215D123F080039BB24D8943EA66
:100F700005134FF6BF751D408B8845EA03139BB2DE
:100F800024F440648D8944EA8504CD8944EA8504CB
:100F9000A4B284800283CA880287038430BC70476D
:100FA000002C014030B4038C23F480531B041B0C31
:100FB0000384038C8488A4B2828B22F4E642120458
:100FC000120C0D8842EA052292B223F400531B044E
:100FD0001B0C0D8943EA05334D8843EA05339BB268
:100FE0000A4DA84203D005F50065A84205D124F4B6
:100FF00080448D8944EA8514A4B284808283CA889F
:10100000A0F84020038430BC704700BF002C014092
:101010004A880B8813438A881343CA8813430A8972
:1010200013434A8913438A8913439BB2A0F844307F
:10103000704700BF0023038043808380C380038107
:1010400043818381C3817047002303804380838071
:10105000C380038143818381704700BF29B1038826
:101060009BB243F0010303807047038823F0010320
:101070001B041B0C0380704770B40489058BADB250
:10108000068CB6B224F007042404240C214325F472
:10109000407525F0030545F4807545F0010526F0FF
:1010A0002206324342EA03139EB20181058306847D
:1010B00070BC704729B103889BB243F08003038062
:1010C0007047038823F080031B041B0C03807047C8
:1010D000038B23F008031B041B0C19430183704787
:1010E000038B23F400631B041B0C43EA01218BB226
:1010F00003837047838B23F400631B041B0C43EAB8
:1011000001218BB28383704710B5194B5B889BB26A
:1011100023B1174B5A88013A92B25A80144B5B782C
:101120002BB3134B5B889BB20BBB114A137912781C
:101130009A4217D00F4A02EB830149880C4C618018
:1011400032F8230002F03AFC23790133DBB2962B0C
:1011500001D0237102E00022054B1A710122044BD9
:101160005A7010BD0020024B587002F027FC10BDD1
:101170003E010020B00300202DE9F04182B09048EC
:1011800003F08AF88F4B1B7833B98F4B1B7B1BB155
:101190004FF4FA7002F0FCFB8B4B1A7B894B1A70F0
:1011A00002F000FC002872D043F69822874B1A60A8
:1011B00000204021864A012303F0BEF902F096F98F
:1011C000844A82FB0012C017C0EBA20202250095E0
:1011D000012401942846282112B27F4B03F0F4F930
:1011E00002F084F9A0F67A5086B2009400200A2119
:1011F0001E22122302F0E8FF009420460B211C223D
:10120000102302F0E1FF00941E200F212A4609233B
:1012100002F0DAFF00941F200F212246092302F07A
:10122000D3FF16F4004F09D133B26C4A82FB03128C
:101230001A44DB17C3EB2212D2B200E002220123D0
:10124000009302200C210F2302F0E2FF5D4B5B783C
:101250000233DBB21B2B02D85A4A537002E0002241
:10126000584B5A70574B587801240094022105229C
:10127000032302F0CDFF0094002021461F22042307
:1012800002F0A2FF0C20002103F012FF69E34D4B96
:101290009B78042B00F26583DFE813F00500A800BB
:1012A0008D02CB0204034E4802F0F6FF02F01EF955
:1012B000A0F67A5085B22BB2952B22DC0124009443
:1012C000002050211F22142302F07EFF00941F20D3
:1012D00051212246122302F077FF424B1B68424AFB
:1012E000A2FB031292094FF4167101FB1233B3F5FE
:1012F000967F26D9002050212122152302F0ACFF31
:101300001FE001240094002061211F22032302F02A
:101310005BFF00941F2062212246234602F054FF07
:1013200015F4004F06D12BB2002BB8BF1F33C3F307
:10133000471200E00122012000906221022302F006
:1013400067FF214B1B8813F4004F02D05B421E4AFB
:1013500013801D4CB4F900301E4D85FB0312DB17C2
:10136000C3EBA2020120592112B2034603F008F98F
:10137000B4F9023085FB0312DB17C3EBA202012094
:10138000512112B2034603F0FBF801204921B4F9C0
:101390001620034603F0F4F801204121B4F9062099
:1013A000034603F0EDF801203A21626A034603F098
:1013B000E7F801203221227B034603F0E1F8D0E276
:1013C000E87F000844010020B4060020C00000208F
:1013D00074600008676666667C60000843082184C4
:1013E0000084000870010020B5814E1BB64802F051
:1013F00053FF0124009408205E211822062302F0E6
:10140000E3FEB24DB5F90030632BA8BF632303EBB5
:10141000830303EB8303AE4E86FB0312DB17C3EBA0
:101420006212009408205E21D2B2062302F0F0FE80
:10143000B5F9002000205F21632AA8BF632223465C
:1014400003F09EF80094082056211822062302F08B
:10145000BBFEA04DB5F90030632BA8BF632303EB9F
:10146000830303EB830386FB0312DB17C3EB6212D8
:10147000009408205621D2B2062302F0C9FEB5F925
:10148000002000205721632AA8BF6322234603F0CF
:1014900077F8914B1B8813F4004F02D05B428E4AC1
:1014A00013808E4802F0F8FE8B4B1B881AB2632A19
:1014B00013468B4C84FB02124FEAE373C3EBA20288
:1014C000CCBF02200D20452112B2022303F058F8B0
:1014D000814BB3F9003084FB0324DA17C2EBA4027A
:1014E00002EB8202A3EB42021A20472112B201232F
:1014F00003F046F87B4B1B782BB1002046212122BC
:10150000102302F0A9FE704E304602F0C5FE724D67
:10151000B5F90A20744F012400940194204640211B
:101520003B4603F051F8B5F9082000940194204699
:1015300039213B4603F048F80020382121220723B7
:1015400002F08AFE654802F0A7FE6A7B00940194CF
:1015500000202F21654B03F037F8304602F09CFE47
:1015600001F0C4FF034600202A21614A03F044F839
:10157000002024215F4A6B8B03F03EF86B6A4FF426
:101580007A7202FB03F3286AB3FBF0F004F02EFB3F
:10159000594904F037FC044603F00CFF48A3D3E993
:1015A000002304F0EBF900B1544C00201E21224628
:1015B000012302F0F7FF484C13201E21E26A0123A9
:1015C00002F0DEFF10201D211122072302F044FE4D
:1015D000237F2BB900201D211022072302F03CFE9F
:1015E0003E4802F059FE3C4BB3F90420002400941D
:1015F000012001901421424B02F0E6FF2046142105
:101600002122092302F028FE2F4802F045FE3D4B1F
:101610001B78062B3CD8DFE803F00412203B3B3B51
:101620002E0000200E21384A012302F057FF00202F
:101630000821364B1A68022302F0B4FF28E000208C
:101640000E21334A012302F049FF00200821314BCB
:101650001A68012302F0A6FF1AE000200E212E4A8C
:10166000012302F03BFF002008212C4B1A680223C3
:1016700002F098FF0CE000200E21294A012302F01D
:101680002DFF00200821274B1A68032302F08AFF50
:10169000114B1B7B062B6DD8DFE803F0045F664A15
:1016A0000B515800192000211F4A012302F016FF98
:1016B00060E0192000211D4A012302F00FFF59E0CC
:1016C0009A99999999F9584000840008800100205E
:1016D0001F85EB517E010020B4060020E87F000842
:1016E00067666666980300208060000884600008D2
:1016F000886000088C60000800002041CDCCC74203
:10170000906000080907002094600008F4000020A1
:101710009C600008F8000020A4600008FC00002085
:10172000AC60000800010020B4600008B860000848
:10173000192000218C4A012302F0D0FE1AE0192062
:1017400000218A4A012302F0C9FE13E0192000217A
:10175000874A012302F0C2FE0CE019200021854ACD
:10176000012302F0BBFE05E019200021824A01237B
:1017700002F0B4FE8148012101F0F6FA28B11820E8
:1017800000210922062302F067FD7D4C7D4E96F96B
:101790001430012500950020014622469BB202F03C
:1017A00045FF96F9153000950C20002122469BB28A
:1017B00002F03CFFD5E0744802F06EFD714EF27C01
:1017C000022500950124019400203C216F4B02F07A
:1017D000FBFEB27C00950194002032216C4B02F09C
:1017E000F3FE727C0095019400202821694B02F0E1
:1017F000EBFE327C0095019400201E21664B02F026
:10180000E3FEF27B0095019400201421634B02F06B
:10181000DBFEB27B0095019400200A21604B02F0B0
:10182000D3FE002001465F4B1A78234602F0A8FE43
:1018300097E05D4802F030FD0024524EA04601279B
:10184000650805EB45056D00EDB2331940462946A4
:1018500093F830203B4602F093FE631CDBB2334426
:101860001020294693F830203B4602F089FE0234CE
:10187000E4B2082CE4D996F85030A342E0D84248AC
:1018800002F00AFD3F4C00205A2194F85020012319
:1018900002F076FE10205A2194F85120012302F024
:1018A0006FFE5EE001205021404B1A68034602F0B3
:1018B00067FE012046213E4B1A68034602F060FE97
:1018C0003C4E01203C213268034602F059FE3A4C5E
:1018D00001203221B4F90020034602F051FEB4F990
:1018E0000020364F3B6803FB02F3354DA5FB031286
:1018F000142032215209012302F042FE01F0E0FDE2
:1019000083B201240094022028212E4A02F08EFE88
:1019100020461E212C4B1A68234602F031FE204639
:1019200014212A4B1A68234602F02AFE20460A2177
:101930003A68234602F024FE254F20460021B7F9DD
:101940000020234602F01CFEB7F90030326802FB8B
:1019500003F2A5FB0232142000215209234602F0B3
:101960000FFE02B0BDE8F081BC600008C060000856
:10197000C4600008C8600008CC6000080014014082
:1019800078600008B4060020E87F0008D0600008F6
:10199000D4600008D8600008DC600008E06000083F
:1019A000E46000080807002000840008C800002048
:1019B000D0000020D400002080010020CC000020B6
:1019C0001F85EB51E8600008C4000020D80000200B
:1019D0007E010020AFF30080054B1B781BB1002275
:1019E000034B1A7070470122014B1A70704700BFF9
:1019F0009803002008B50E4B1B680E4A5168591A0F
:101A000047F23052914211D90A4A5360082003F03C
:101A10005DFB411C082089B203F04AFB0C2003F057
:101A200055FB411C0C2089B203F042FB08BD00BFEE
:101A3000700100204401002038B502F0A7FA02F03E
:101A400099FA02F0AFFA642001F0A2FF4FF47A6035
:101A5000C82101F0F1FF4FF4C87001F0B3FB64201E
:101A600001F096FF4FF4C87001F0ACFB4FF4967094
:101A700001F08EFF40F6B830C82101F0DDFF4FF4D1
:101A8000967001F09FFB094D01242846214601F084
:101A90006BF90028F9D102F061FA00F05BFB72B635
:101AA000012001F055F801F059F838BD0008014057
:101AB00010B582B04348022101F056F910BB424BE9
:101AC0001B7A23B9404B01221A729A8138E03E4BAF
:101AD0009B89B3F57A7F33D94FF47A60FA2101F00C
:101AE000ABFF394B9B780133DBB2042B02D8364A6B
:101AF000937002E00022344B9A70334B00229A819B
:101B00001A721DE0304B1B7A012B16D140F6B8300B
:101B1000FA2101F091FF2D4B1B780133DBB2022B30
:101B200002D82A4A137005E0032B0CBF06220022BC
:101B3000264B1A700022244B9A810022224B1A72E3
:101B40002348012101F010F940B31F4B1B7C23B93E
:101B50001D4B01221A74DA8131E01B4BDB89B3F58E
:101B60007A7F2CD94FF4E06002F018FE0A238DF83A
:101B7000043000248DF8054007238DF806308DF8D9
:101B8000074001A802F014FE124B1C6002F0C0FFD7
:101B9000FFF752FF0C4B9C811C7410E00A4B1B7C1E
:101BA000012B09D14FF4FA60FA2101F045FFFFF74C
:101BB00013FF0022044BDA810022034B1A7402B097
:101BC00010BD00BF0014014044010020090700209F
:101BD00000080140C0000020F8B5064607683846F6
:101BE00003F0E8FB04460D461DA3D3E9002303F0F0
:101BF000A7FE50B1204629461BA3D3E9002303F0DA
:101C00007BFA03F0EDFE3060F8BD2046294618A3AC
:101C1000D3E9002303F094FE50B12046294610A3D7
:101C2000D3E9002303F068FA03F0DAFE3060F8BD70
:101C300038464FF07E5104F0CFF950B12046294686
:101C40000BA3D3E9002303F057FA03F0C9FE306079
:101C5000F8BD38464FF07E5103F018FF3060F8BDF4
:101C60007B14AE47E17A843FFCA9F1D24D62503F2C
:101C70009A9999999999B93FF8B5064607683846EF
:101C800003F098FB04460D4635A3D3E9002303F087
:101C900057FE002860D12046294633A3D3E900230C
:101CA00003F04EFE50B1204629462DA3D3E9002370
:101CB00003F020FA03F094FE3060F8BD2046294678
:101CC0002BA3D3E9002303F03BFEB0B12046294605
:101CD00025A3D3E9002303F00DFA03F081FE0446A7
:101CE00003F068FB1EA3D3E9002303F029FE08B923
:101CF0003460F8BD204B3360F8BD38464FF07E515C
:101D000004F06AF9B0B12046294619A3D3E90023AB
:101D100003F0F0F903F064FE044603F04BFB10A35C
:101D2000D3E9002303F00CFE08B93460F8BD134B6F
:101D30003360F8BD38464FF07E5103F0A5FE0446EF
:101D400003F038FB06A3D3E9002303F0F9FD08B93B
:101D50003460F8BD0A4B3360F8BD00BFAFF30080BC
:101D6000FCA9F1D24D62503F7B14AE47E17A843F2B
:101D70009A9999999999B93FBC74133CEC51B83D23
:101D80006666663FAFF3008010B56B4B9A8C6B4B69
:101D90005B8AC2F34E029A4257D94FF47A601421FB
:101DA00001F04AFE664B1B78062B00F2AD80DFE89F
:101DB00003F0041F36ABABAB4800624B186803F06E
:101DC000F9FA55A3D3E9002303F096F903F008FECE
:101DD000044603F0EFFA52A3D3E9002303F0CEFD4B
:101DE00010B9584B1C608FE0574A564B1A608BE075
:101DF000564B186803F0DEFA4BA3D3E9002303F037
:101E00007BF903F0EDFD0446514904F003F910B9E4
:101E10004E4B1C6078E04E4A4C4B1A6074E04D4BC0
:101E200018684FF07C5103F031FE04464A4904F033
:101E3000F1F810B9474B1C6066E0474A454B1A6001
:101E400062E04648FFF7C8FE5EE03B4A928CC2F370
:101E50004E02934258D94FF47A60142101F0ECFD00
:101E6000374B1B78062B4FD8DFE803F0041F384EA2
:101E70004E4E4B00334B186803F09CFA26A3D3E96F
:101E8000002303F037F903F0ABFD044603F092FAA8
:101E900027A3D3E9002303F053FD10B9294B1C609D
:101EA00032E02F4A274B1A602EE0284B186803F0C7
:101EB00081FA1DA3D3E9002303F01CF903F090FD80
:101EC00004464FF0804104F087F810B91F4B1C60A6
:101ED0001AE04FF080421D4B1A6015E01D4B186848
:101EE0004FF07C5103F0D0FD04464FF07E5104F0DA
:101EF00073F810B9174B1C6006E0194A154B1A60AD
:101F000002E01648FFF7B8FE0B4B9A8CC2F34E0264
:101F10000A4B5A8210BD00BF9A9999999999A93F85
:101F2000666666666666EE3F9A9999999999C93F81
:101F30009A9999999999B93F000800404401002065
:101F400009070020F40000203333733FF80000201D
:101F50000000F041FC000020000070420001002061
:101F6000CDCCCC3DAFF300802DE9F04F8BB041F2EA
:101F70000C00012101F034FE0120014601F030FE89
:101F8000E023ADF8243018238DF8273003258DF891
:101F90002650DFF8E8B0584609A900F093FE002467
:101FA000ADF810404FF48273ADF81230ADF8144024
:101FB000ADF81640ADF818404FF40073ADF81A3084
:101FC0000823ADF81C30ADF81E404FF0070AADF8FD
:101FD00020A0284E304604A902F056FE4FF4806936
:101FE000ADF824908DF826504FF010088DF827801A
:101FF000214D284609A900F065FE3046012102F076
:1020000065FEADF8248001278DF8267004268DF832
:102010002760584609A900F055FE2046314600F0D9
:10202000E5FECDF808808DF80C400C238DF80D30BE
:102030008DF80E7002A801F003FE4FF4E06002F08C
:10204000ADFB0A238DF804308DF805408DF806A00D
:102050008DF807700DEB060002F0AAFB284631460A
:1020600000F08AFE2846494600F084FE0BB0BDE829
:10207000F08F00BF00300140000C0140000801401B
:1020800070B50E4B988165241E46022530462946C0
:1020900002F02AFE18B16524084E802502E0013CBA
:1020A000F4D1F8E73046294602F01EFE08B1013CA3
:1020B000F8D1024B9889C0B270BD00BF003001401A
:1020C00038B505460A4C20464FF4806100F054FEB6
:1020D00005F01F00FFF7D4FFFF20FFF7D1FF0546F3
:1020E00020464FF4806100F045FE284638BD00BF11
:1020F000000C014070B506460D460A4C20464FF4D0
:10210000806100F039FE06F01F0040F02000FFF76C
:10211000B7FF2846FFF7B4FF20464FF4806100F078
:1021200029FE70BD000C014070B504460D461646F0
:10213000FFF7C6FF26B10121A9400143C9B204E05F
:102140000121A94020EA0101C9B22046FFF7D2FFD0
:1021500070BD00BF10B5072004210122FFF7E4FF86
:10216000072005210122FFF7DFFF072006210122BA
:10217000FFF7DAFF064C2046042100F0FDFD0020A9
:102180000146FFF7B7FF2046042100F0F3FD10BD24
:10219000000C014008B50B4620B102280CBF2121DC
:1021A000012100E00921032B02D141F0060108E0E2
:1021B000022B02D141F0040103E0012B08BF41F0E2
:1021C00002010620FFF796FF08BD00BF08B57D2875
:1021D00034BF01467D210520FFF78CFF08BD00BFFD
:1021E00008B5072004210122FFF79EFF07200521E3
:1021F0000122FFF799FF072006210122FFF794FF34
:1022000000203A21FFF776FF022000F0DBFF08BD37
:1022100010B5164C20464FF4806100F0ADFDE22071
:10222000FFF72EFF20464FF4806100F0A3FD07204A
:1022300004210122FFF778FF072005210122FFF783
:1022400073FF072006210122FFF76EFF20460421BD
:1022500000F092FD00203B21FFF74CFF20460421B7
:1022600000F088FD022000F0ADFF10BD000C014021
:1022700038B50C4C20464FF4806100F07DFDFF2006
:10228000FFF7FEFE054620464FF4806100F072FD28
:1022900015F0200F03BF85F0100040F30010C0B20E
:1022A000012038BD000C014070B559B1441E4E1ECE
:1022B000F6B2064400252846FFF7E2FE04F8010FB7
:1022C000B442F8D170BD00BF70B50646144C20462C
:1022D0004FF4806100F050FD6020FFF7D1FE002038
:1022E000FFF7CEFE054620464FF4806100F042FD28
:1022F00020464FF4806100F03FFD6120FFF7C0FEF3
:1023000030462946FFF7D0FF20464FF4806100F0A9
:1023100031FD07204021FFF7EDFE284670BD00BFCC
:10232000000C0140F8B5102001F0D2FC002842D08A
:10233000102001F0DBFC0720FFF7C2FE1E4B83F8E4
:10234000510010F0400F36D01C48FFF7BDFF01468A
:102350001B4B187001282ED90238064688B1194C3B
:1023600000221346184F14F8015F85EA132537F849
:10237000155085EA03239BB2013292B29642F2D8FD
:1023800000E000230D4A105C0A4412F8012C42EAD6
:10239000002293420FD1094802F0EAFB0B4B1A6866
:1023A000074B5968511A40F2E7340348A14294BFE1
:1023B000C162C4625A60F8BDB40600200C06002059
:1023C000580100200B060020EC600008700100207E
:1023D00038B549B1441E4D1EEDB2054414F8010F45
:1023E000FFF74EFEAC42F9D138BD00BFF8B5074645
:1023F0000E4615460A4C20464FF4806100F0BCFCA6
:1024000007F01F0040F02000FFF73AFE3046294653
:10241000FFF7DEFF20464FF4806100F0ABFCF8BD13
:10242000000C014038B50546074C2046042100F059
:10243000A3FC0A2029460322FFF7D8FF20460421E7
:1024400000F098FC38BD00BF000C014038B50546CF
:10245000074C2046042100F08FFC1020294603225F
:10246000FFF7C4FF2046042100F084FC38BD00BF04
:10247000000C014010B50C46FFF7A8FE202C34BF1D
:10248000214620210F4B19701120FFF733FE032046
:102490000121FFF72FFE0C4C2046FFF7C3FF04F18C
:1024A0000800FFF7D3FF02200121FFF723FEFFF70B
:1024B000AFFE0648042100F05DFC012000F082FE22
:1024C00010BD00BF0806002000000020000C0140E5
:1024D000F0B583B005460E46084681B12A46002372
:1024E000284F12F8011B81EA132137F8114084EAC2
:1024F00003239BB2541BA4B2A042F2D800E00023F5
:102500001A0AAA55AA1953701F4C2046042100F03C
:1025100033FCFFF765FE20464FF4806100F02CFC91
:10252000E120FFF7ADFD20464FF4806100F022FC72
:1025300020464FF4806100F01FFCA020FFF7A0FDB3
:10254000B11C2846C9B2FFF743FF20464FF4806113
:1025500000F010FC2046042100F00CFC0023019345
:10256000019BB3F5FA7F06D2019B01330193019BD6
:10257000B3F5FA7FF8D30448042100F0FDFB03B063
:10258000F0BD00BFEC600008000C014070B582B0E7
:102590000023ADF80630934E934C944D19E12388F7
:1025A00003F00F032B70002B40F0DF80904A11687E
:1025B00089B2904B1980188800F030008E4908804D
:1025C000198801F440511980136823F4804323F0E3
:1025D00040031B041B0C83F4005383F0200343F4DB
:1025E000004343F080031360238803F010039BB281
:1025F000002B39D11446136823F4E14323F0700310
:102600001B041B0C1360FEF707FA236823F48043B6
:1026100023F040031B041B0C764A128802F48052FC
:1026200092B20AB183F48053724A128802F40052C3
:1026300092B20AB183F400536F4A128802F010027A
:1026400092B20AB183F010036B4A128802F02002A2
:1026500092B20AB183F0200343F4004343F08003B5
:102660009BB2634A1360BBE0614B1B689BB2ADF841
:102670000630BDF8063003F400639BB2002B37D060
:102680005B4C236823F070031B051B0D2360FDF7D3
:102690008BFF236823F4804323F040031B041B0CAF
:1026A000544A128802F4805292B20AB183F48053E1
:1026B000504A128802F4005292B20AB183F40053D5
:1026C0004D4A128802F0100292B20AB183F0100350
:1026D000494A128802F0200292B20AB183F0200324
:1026E00043F4004343F080039BB2414A136077E018
:1026F000BDF806301BB2002B6BDA3D4C236823F08B
:1027000070031B051B0D2360FEF7ECF8236823F410
:10271000804323F040031B041B0C364A128802F44A
:10272000805292B20AB183F48053324A128802F482
:10273000005292B20AB183F400532F4A128802F079
:10274000100292B20AB183F010032B4A128802F0F1
:10275000200292B20AB183F0200343F4004343F015
:1027600080039BB2224A13603AE09B0003F180434E
:1027700003F5B8431A6892B2ADF80620BDF80620FA
:1027800012B2002A0BDA1A6822F070021205120D3A
:102790001A602A78013A194B53F822309847BDF84D
:1027A000063003F080039BB29BB12B789B0003F1B2
:1027B000804303F5B8431A6822F4E14222F0700224
:1027C0001204120C1A602A78013A0D4B53F8223089
:1027D000984733689AB2228013F4004F7FF4DFAE3B
:1027E00002B070BD445C00400A0700203C06002097
:1027F000005C00402C0600202E0600200401002072
:102800002001002082B03B4B1A6842F001021A609E
:102810005968394A0A405A601A6822F0847222F4D0
:1028200080321A601A6822F480221A605A6822F4F0
:10283000FE025A604FF41F029A6000220092019239
:102840001A6842F480321A601A46136803F400339F
:102850000193009B01330093019B1BB9009BB3F5CF
:10286000A06FF2D1234B1B6813F4003F14BF012368
:1028700000230193019B012B36D1204B1A6842F0B3
:1028800010021A601A6822F003021A601A6842F0F5
:1028900002021A60A3F580535A685A605A685A6057
:1028A0005A6842F480625A605A6822F47C125A6074
:1028B0005A6842F4E8125A601A6842F080721A604C
:1028C0001A46136813F0007FFBD00A4B5A6822F0B7
:1028D00003025A605A6842F002025A601A4653686C
:1028E00003F00C03082BFAD14FF00062044B9A60FE
:1028F00002B07047001002400000FFF800200240C4
:1029000000ED00E04FF6F8730340014A1360704792
:10291000505C0040800000F1804000F5B840036842
:1029200023F4EC4323F0700319438BB20360704728
:10293000800000F1804000F5B840036823F4E043D4
:1029400023F040039BB201F0100292B20AB183F06F
:10295000100301F0200189B209B183F0200343F490
:10296000004343F080030360704700BF800000F124
:10297000804000F5B840036823F4804323F07003DF
:102980009BB201F4805292B20AB183F4805301F4F5
:10299000005189B209B183F4005343F4004343F07A
:1029A00080030360704700BF800000F1804000F5A5
:1029B000B840036823F4804323F070039BB283F490
:1029C000405343F4004343F080030360704700BF6B
:1029D000800000F1804000F5B840036823F4F873EC
:1029E0001B051B0D43F4004343F080030360704755
:1029F000800000F1804000F5B840036813F4804F78
:102A000009D0036823F0F0031B051B0D43F440437A
:102A100043F0800303607047800000F1804000F5C0
:102A2000B840036813F0400F09D0036823F0F003A7
:102A30001B051B0D43F4004343F0C00303607047C4
:102A4000064B1B68490849009BB203EBC00000F12C
:102A5000005000F54050400001607047505C00405D
:102A6000054B1B68490849009BB203EBC000034BB0
:102A700003445B0019607047505C00400430002044
:102A8000054B1B689BB203EBC00000F1005000F542
:102A90004050400000887047505C0040044B1B6869
:102AA0009BB203EBC000034B03445B0018887047E4
:102AB000505C004004300020044B1B689BB203EBC9
:102AC000C000034B03445B0019607047505C00403A
:102AD000023000200E4B1B689BB203EBC0000D4B75
:102AE00003445B003E290BD94A0911F01F0F04BFB4
:102AF00002F1FF3292B2920242F400421A60704731
:102B00004A0811F0010F18BF013292021A60704793
:102B1000505C004006300020054B1B689BB203EB65
:102B2000C000044B03445B001868C0F30900704701
:102B3000505C004006300020C3B2000A40EA032087
:102B4000704700BF014B1860704700BF20000E4265
:102B5000014B1860704700BFA0000E42074B1A6877
:102B600042F004021A601A6842F002021A60044B32
:102B70001A6942F004021A6130BF704700700040C9
:102B800000ED00E0FEE700BF10B5104B104A9A427E
:102B90000DD2131D0F4CE41A24F003040434002357
:102BA00010460D495A581A500433A342FAD10B4823
:102BB0000B494FF000028842B8BF40F8042BFFF6E3
:102BC000FAAFFFF71FFE00F0DDFB10BD3C01002057
:102BD000000000203F010020F08500083C0100209B
:102BE0000C07002030B492B14B1C0331541EE4B2E8
:102BF00001EB44040021020F092A94BF303237321E
:102C000003F8012C000103F8021BA342F3D130BCEE
:102C1000704700BF704700BF08B5012000F076FF85
:102C20004FF40000012100F0E9FF08BD0322014B31
:102C30001A60704764010020054B9B7A1BB1052286
:102C4000044B1A6070470122024B1A60704700BFA4
:102C5000400600206401002000B583B04FF4C0603E
:102C600001F09CFD14238DF8043001238DF805300C
:102C700000228DF806208DF8073001A801F098FD9C
:102C800003B05DF804FB00BF704700BF38B50A4BC6
:102C90001B680A4A146804321268D0180AD0084D1A
:102CA00029460822FFF79EFF204605F11001042265
:102CB000FFF798FF38BD00BFE8F7FF1FECF7FF1FD5
:102CC000120000202DE9F001CB7803F00F0513F07E
:102CD000100F1CBF8B781D430B78F3B107680023DE
:102CE00001264FF00F0C06FA03F20C8814409442B0
:102CF0000FD19A000CFA02F827EA080705FA02F247
:102D00001743CA78282A01D1446102E0482A08BF43
:102D100004610133082BE6D107600B88FF2B20D913
:102D20004768002301264FF00F0C03F1080206FA52
:102D300002F20C88144094420FD19A000CFA02F867
:102D400027EA080705FA02F21743CA78282A08BFBB
:102D50004461CA78482A08BF04610133082BE4D1D2
:102D60004760BDE8F0017047836819420CBF00203E
:102D700001207047016170474161704730B40028FD
:102D8000194BB4BFDB695B6884B200F44012B2F542
:102D9000401F07D123F07063134A556825F0706512
:102DA000556014E010F4801F09D0C0F303420325DE
:102DB00005FA02F223EA020343F0706307E0420DD2
:102DC000120104FA02F223EA020343F0706319B11C
:102DD000420D1201944023430028034AB4BFD3613B
:102DE000536030BC704700BF0000014010B401F0D8
:102DF00003039B0001F0FC0101F1804101F58031EA
:102E00008C680F229A4024EA02028A608A689840FD
:102E100002438A605DF8044B704700BF034B9B7A06
:102E200013B10522024B1A60704700BF4006002014
:102E3000640100200422014B1A60704764010020E5
:102E4000034B1B78202B02D10022014B1A707047D4
:102E500060010020704700BF10B5212808D1144B35
:102E60001B681B7803F07F03212B0BD0022010BDC1
:102E7000202811D10E4B1B681B7803F07F03212BF8
:102E800011D10BE00B4A0A4B1B689A6100245C824B
:102E900020469047204610BD022010BD2022064B40
:102EA0001A70064AEFE72022034B1A70022010BD69
:102EB00060060020F52E0008600100200D2F00089C
:102EC000074B1B681B7803F07F03212B06D100F012
:102ED000DF0002280CBF002002207047022070474C
:102EE0006006002021B9022834BF0020022070476C
:102EF0000220704720B9034B1B6808221A827047D2
:102F000001487047600600202C00002020B9034BC8
:102F10001B6808221A82704701487047600600202B
:102F20002C00002010B5FFF7B1FE054B1B680024F4
:102F30009C7200F09BF801F0DBFB024B1C6010BDA3
:102F4000600600206401002010B5334B1B6800248C
:102F50009C72324AD2795A72DC722046FFF7D2FC58
:102F600020464FF40071FFF7D5FC20461021FFF7F3
:102F7000DFFC20464021FFF773FD20468021FFF74C
:102F80005FFD2046FFF724FD2046254B93F83410C3
:102F9000FFF7A0FD2046FFF707FD01202146FFF7C0
:102FA000B9FC0120C021FFF74BFD01202021FFF7D4
:102FB000BFFC01202146FFF7D9FC02204FF4C0617D
:102FC000FFF7A8FC02204FF48071FFF739FD0220C3
:102FD0002146FFF7CBFC02202021FFF7A9FC0320AC
:102FE0002146FFF797FC03204FF48871FFF738FD67
:102FF00003204021FFF76EFD03204FF44051FFF7FF
:10300000B5FC03202146FFF793FC2046FDF7E2FCC8
:103010000122044B1A6010BD600600204C630008BA
:103020002C0000206401002008B50249FDF78EFA4B
:1030300008BD00BF6400002008B50249FDF786FA0C
:1030400008BD00BF6C00002008B5064B1B68DB788C
:10305000042B05D8044901EBC301FDF777FA08BD3D
:10306000002008BD600600207400002008B5012083
:10307000FFF70AFE064B01221A6000201860054A7D
:1030800010604FF4E05204490A801A6008BD00BF86
:10309000405C0040445C00406406002008B5074BDB
:1030A0001A6892B242F008021A601A6892B242F0AC
:1030B00004021A60FFF7BAFD08BD00BF405C004083
:1030C00010B5064C22684FF6FB7313402360FFF7E0
:1030D000B3FD4FF43F43236010BD00BF405C004090
:1030E00008B507281CBF274B1870264B1B78DBB28E
:1030F000052B42D8DFE803F003090F15222EFFF756
:10310000DFFF06221F4B1A7008BDFFF7D9FF04220C
:103110001C4B1A7008BD1B4B02225A7003221A70F6
:1031200008BD184B5A78013AD2B25A705B7813F046
:10313000FF0F25D10422134B1A7008BD124B1A68D9
:1031400092B242F010021A600E4B05221A700A2247
:103150005A7008BD0B4B5A78013AD2B25A705B785C
:1031600013F0FF0F0CD1084A11684FF6EF730B40B4
:1031700013600622034B1A7008BD0622014B1A7019
:1031800008BD00BF30060020405C004008B5074B7A
:10319000074A136002221A72064B074A1360074956
:1031A000074A11601B68984708BD00BF4006002011
:1031B0006006002034000020380600209400002023
:1031C0005C060020034B18601A461368002BFCD1E4
:1031D000704700BF6801002008B51F4B1B681BB17A
:1031E0001D4B1A68013A1A601B4B5B680133B3F53B
:1031F0007A7F02D2184A536002E00022164B5A60CE
:10320000154B9A6801329A60144B1B8813B1013335
:10321000124A1380114B5B8813B101330F4A53805C
:103220000D4BDB682BB1013B0B4AD3600BB900F0AF
:10323000A5FB094B1B6933B1013B074A136113B965
:10324000002000F0BBFBFDF75FFF054B1B6813B1CF
:10325000013B034A136008BD6801002050010020B3
:10326000C000002070B500F025F9044600F01CF9FC
:10327000414B9B8A632B03D801333F4A938217E06B
:103280003E4B9B699C4284BF3C4B9C613B4B5B68C3
:103290009C423CBF394B5C60384B1B69984284BFF1
:1032A000364B1861354B9B6898423CBF334B986056
:1032B000324B5A68A41A642101FB04F49D69AA1ACE
:1032C00094FBF2F4A4B22C4AD4829A68801A01FBCF
:1032D00000F11B699A1A91FBF2F292B213B2642BBD
:1032E00003DD6422244B1A8305E012F4004F18BF5B
:1032F0000022214B1A8323B2642B03DD64221E4B70
:10330000DA8205E014F4004F02D000221A4BDA8270
:10331000194BDD8A198B08B2184CE26802FB00F2E7
:103320001748A0FB0262A5EB521292B2DA822DB2CC
:10333000636903FB05F5A0FB0530A1EB501189B2D1
:103340000BB2642B03DD64210B4B198305E011F4F0
:10335000004F18BF0021084B198313B2642B03DD03
:103360006422054BDA8270BD12F4004F02D00022B5
:10337000014BDA8270BD00BF68010020C000002050
:103380001F85EB5138B500F0D9F800F00BFB78BB86
:1033900000F1804000F584300121FFF7E5FC18B909
:1033A0000120FFF7D5FB23E04FF4967000F0F0FA10
:1033B0004FF47A60C82100F03FFB4FF4FA70FFF73A
:1033C00001FF642000F0E4FA41F28830C82100F0E7
:1033D00033FB4FF4C870FFF7F5FE642000F0D8FA15
:1033E0001B4D012428462146FFF7BEFC0028F9D1D9
:1033F00018480821FFF7BEFC00F0F0FD164800F069
:103400004BFF00F087F801F03BFA042001F05EFE6C
:10341000411C042089B201F04BFE104C0025FFF73F
:1034200021FFA37E0133DBB2042B01D8A37608E091
:10343000A57600F0ABFDFDF79FFE00F0B3FDFEF7B3
:10344000D9FA01F051FAFEF733FBFEF79DFCE6E7EF
:1034500000080140000C0140E87F000868010020DE
:1034600008B5022000F034FC10B1022000F03EFC50
:1034700008BD00BF38B501460A4C2046012203238F
:1034800000F08CFC2046012100F07CFC2546022443
:103490002846214600F0E0FC0028F9D0014800F061
:1034A000C7FC38BD0024014008B50920FFF7E2FF42
:1034B00008BD00BF08B50820FFF7DCFF08BD00BF4E
:1034C00008B51020FFF7D6FFC0EB001040F3DB0378
:1034D000C3F55C630933044880FB0320DB17C3EBAF
:1034E000A00000B208BD00BF6766666608B502208E
:1034F000FFF7C0FF40F6B20303FB00F0044B83FB71
:103500000023C017C0EBA310A0F2467000B208BDA4
:10351000D34D621008B503484FF48051FFF72CFCDF
:1035200008BD00BF000C014008B503484FF48051AE
:10353000FFF720FC08BD00BF000C01402DE9F04F53
:1035400095B000F083FA102001F0ECF8022001F0B1
:10355000DFF8002000F0BCFA002000F0CDFA4FF4B4
:10356000806000F0BFFA4FF4404000F0D5FA002030
:103570004FF4201100F08AFA012000F091FA39246A
:10358000204600F049FB0028FAD0022000F08EFA15
:1035900000F096FA0828FBD140F63D20012100F00A
:1035A0001FFB4FF0C050012100F028FB0120FFF766
:1035B000C9FA0120014600F021FB0220012100F0A0
:1035C0001DFB0420012100F019FBD2480121FFF767
:1035D000D5FB4FF400400121FFF7D0FBCE4801217D
:1035E000FFF7CCFBCD4B4BF67F325A60F021CC4A33
:1035F00082F8231000259D6007221A604FF40070A6
:10360000012100F0EDFA41F20803ADF84C3010272B
:103610008DF84F7003248DF84E40C24E304613A9EA
:10362000FFF750FBFFF780FF4FF00108ADF84C802B
:1036300028238DF84F308DF84E40DFF8FC92484635
:1036400013A9FFF73FFBADF84C804FF0480A8DF807
:103650004FA08DF84E40B44813A9FFF733FB4FF449
:103660008073ADF84C304FF0180B8DF84FB08DF8DB
:103670004E40484613A9FFF725FB4FF40053ADF821
:103680004C308DF84FB08DF84E40304613A9FFF7FF
:1036900019FBADF84C708DF84FB08DF84E403046A8
:1036A00013A9FFF70FFBADF84C408DF84F50304693
:1036B00013A9FFF707FB0423ADF84C308DF84F70CA
:1036C0008DF84E40304613A9FFF7FCFAC023ADF841
:1036D0004C308DF84FA08DF84E40304613A9FFF7BF
:1036E000F1FA0223ADF84C308DF84FA08DF84E4022
:1036F0008D4813A9FFF7E6FA4FF40053ADF84C30AC
:103700008DF84F708DF84E40884813A9FFF7DAFA0C
:103710000823ADF84C308DF84F708DF84E40484678
:1037200013A9FFF7CFFA0E958DF83C508DF83D5058
:103730004FF46023109311958DF848807C4C2046FF
:103740000EA900F0D9FA2046414600F0FBFA2046C7
:1037500000F004FB204600F007FB0028FAD1744873
:1037600000F006FB724C204600F008FB0028FAD15E
:10377000012000F061FB0024ADF82E402823ADF8B5
:1037800030300323ADF82C30ADF832408DF83440A2
:10379000684E30460BA9FDF72BFB07A8FDF74AFC46
:1037A0001423ADF822304FF0600AADF81CA00125BB
:1037B000ADF81E504FF00409ADF82090ADF824404C
:1037C000ADF82640304607A9FDF762FB03A8FDF7D8
:1037D0003BFC4FF48043ADF81830304603A9FDF7A9
:1037E00017FC30462946FDF739FCADF82E4064271A
:1037F000ADF830704FF00A08ADF82C80ADF83240CB
:103800008DF834404FF080400BA9FDF7F1FAA6F592
:10381000943630460BA9FDF7EBFA07A8FDF70AFC32
:10382000ADF82240ADF81CA0ADF81E50ADF82090C8
:10383000ADF82440ADF82640304607A9FDF76EFBF1
:1038400030460821FDF74CFC304607A9FDF720FB68
:1038500030460821FDF73CFC30462946FDF72AFC9E
:103860004FF0804007A9FDF79DFB4FF080400821F5
:10387000FDF740FCADF822803023ADF81C30ADF8E8
:103880001E50ADF824404FF0804007A9FDF746FBDD
:103890004FF080402946FDF70DFC4FF08040082195
:1038A000FDF71EFC30462946FDF7D8FB4FF080405F
:1038B0002946FDF7D3FB4FF080431C87A3F8404017
:1038C000ADF82E40ADF83070ADF82C40ADF8324078
:1038D0008DF8344006F5806630460BA9FDF788FA6E
:1038E0003046294622462346FDF7C6FB3046294688
:1038F000FDF7B4FB022301938DF80A508DF80840C0
:103900000C238DF809300DEB090000F099F907231D
:1039100014E000BF0002300000081A0010E000E0D0
:1039200000ED00E0000C01400014014000100140D7
:1039300000240140002C0140000801408DF80030B7
:103940008DF801408DF802508DF80350684600F064
:103950002FFFFFF75FF9FFF75FF9FFF77DF9FFF73B
:1039600015FC15B0BDE8F08F08B503484FF40051C1
:10397000FFF700FA08BD00BF0010014008B503487A
:103980004FF40051FFF7F8F908BD00BF00100140E7
:1039900010B50446FFF7E8FF014B1C6010BD00BFE7
:1039A0007401002008B504480121FFF7DDF9D0F1CA
:1039B000010038BF002008BD0014014030B585B0BB
:1039C000044690B90224ADF80C4010238DF80F3056
:1039D00003238DF80E30174D284603A9FFF772F91F
:1039E00028462146FFF7C8F922E00223ADF80C3043
:1039F00018238DF80F3003238DF80E300D4803A9DE
:103A0000FFF760F90023ADF8023040F2DF12ADF8A5
:103A100000204CF2503292FBF4F4ADF80440ADF8C3
:103A200006308DF808304FF080406946FDF7E0F928
:103A300005B030BD0008014010B50C46FFF7BEFFD1
:103A4000014B1C6010BD00BF780100200D4B1A68AF
:103A500042F001021A6059680B4A0A405A601A681B
:103A600022F0847222F480321A601A6822F48022D2
:103A70001A605A6822F4FE025A604FF41F029A60DC
:103A8000704700BF001002400000FFF8034B5A6867
:103A900022F47C1211430843586070470010024022
:103AA000014B1860704700BF60004242034B5A68E8
:103AB00022F0030210435860704700BF001002401C
:103AC000024B586800F00C00704700BF0010024025
:103AD000034B5A6822F0F00210435860704700BF51
:103AE00000100240034B5A6822F4E0621043586011
:103AF000704700BF00100240034B5A6822F4605226
:103B000042EAC0005860704700100240014B186044
:103B1000704700BFD8004242034B5A6822F440422B
:103B200010435860704700BF0010024010B4284B8B
:103B30005B6803F00C03042B05D0082B06D0F3B907
:103B4000244B03601DE0234B03601AE0204B5A68AE
:103B50005B68C2F38342023213F4803F04D11E4BF0
:103B600003FB02F202600CE0194B5B6813F4003FA8
:103B700014BF194B174B03FB02F2026001E0154B17
:103B80000360134A5168C1F30311144B595CC9B265
:103B9000046824FA01F141605468C4F302241C5DF6
:103BA000E4B221FA04F484605468C4F3C2241C5DB6
:103BB000E4B2E140C1605268C2F3813213441B7C1D
:103BC000DBB2B1FBF3F101615DF8044B704700BF5C
:103BD0000010024000127A0000093D00E0000020C1
:103BE00021B1054B9A69104398617047024B9A695D
:103BF00022EA0000986170470010024021B1054B95
:103C0000DA691043D8617047024BDA6922EA000092
:103C1000D8617047001002404309012B02D1074BC5
:103C20001B6804E0022B054B0CBF1B6A5B6A00F0AB
:103C30001F0023FA00F000F001007047001002405E
:103C400010B48379002B33D0204B1968026821EA25
:103C500002021A605968026821EA02025A60027977
:103C600002F1804202F5823214680168214311603A
:103C70009968026821EA02029A60D968026821EA1A
:103C80000202DA604379102B09D1104B996802685F
:103C90000A439A60D96802680A43DA6012E003F1C5
:103CA000804303F58233196802680A431A6009E009
:103CB000037903F1804303F582331A68016822EA2D
:103CC00001021A605DF8044B704700BF0004014018
:103CD000054B1A685B69184204D010420CBF0020E3
:103CE000012070470020704700040140014B5861DB
:103CF000704700BF0004014010B4436823F47023F0
:103D000023F480730A6813430A7943EA0223436069
:103D100084688A68CB681A43094B234013434A7965
:103D200043EA42038360C26A22F470020B7C013BC7
:103D3000DBB242EA0353C3625DF8044B704700BF35
:103D4000FDF7F1FF21B1836843F001038360704701
:103D5000836823F001038360704700BF836843F0EA
:103D600008038360704700BF8068C0F3C0007047DD
:103D7000836843F004038360704700BF8068C0F32A
:103D80008000704721B1836843F4A00383607047CB
:103D9000836823F4A0038360704700BF70B40929CF
:103DA0000ED9C668A1F10A0404EB44040725A54016
:103DB00026EA050503FA04F445EA0403C3600BE0B0
:103DC000066901EB41040725A54026EA050503FA2B
:103DD00004F445EA04030361062A0CD8446B013A53
:103DE00002EB82021F23934024EA030301FA02F24A
:103DF0001A4342631AE00C2A0CD8046B073A02EB10
:103E000082021F23934024EA030301FA02F21A43B9
:103E100002630BE0C46A0D3A02EB82021F23934057
:103E200024EA030301FA02F21A43C26270BC70472B
:103E3000C06C80B2704700BF28B1064B9A6842F44C
:103E400000029A607047034B9A6822F400029A605D
:103E5000704700BF00240140036819420CBF0020D6
:103E60000120704738B50D48012100F0D9FF0B4DF6
:103E70004FF400342846214600F0F8FF0028F9D11D
:103E80000648012100F0B0FF044D054C28462146AC
:103E900000F0DEFF0028F9D038BD00BF005400401C
:103EA0000100030038B509487821002200F0C8FF5E
:103EB000064D074C2846214600F0CAFF0028F9D0DD
:103EC0000248012100F082FF38BD00BF00540040CD
:103ED0008200070038B50146054800F0AFFF044DE9
:103EE000044C2846214600F0B3FF0028F9D038BD25
:103EF000005400408400070038B50648012100F056
:103F000081FF044D044C2846214600F0AFFF0028F5
:103F1000F9D138BD005400401000001010B504461F
:103F2000FFF7A0FFFFF7BEFF8020FFF7D3FF0A4B8C
:103F3000187840F02000FFF7CDFFFFF7DDFFFFF717
:103F400091FFFFF7AFFF8020FFF7C4FF2046FFF788
:103F5000C1FFFFF7D1FF10BD9001002008B5044B51
:103F60001A7862F07F021A700020FFF7D7FF08BDB1
:103F7000900100200449CB1C01F5FE71FF2203F8DB
:103F8000012F8B42FBD17047900100200449CB1CCC
:103F900001F5FE71002203F8012F8B42FBD170471F
:103FA00090010020F8B50C4D40260027FFF75AFF7E
:103FB000FFF778FF3046FFF78DFF3C46285DFFF79F
:103FC00089FF0134652CF9D1FFF796FF0136F6B26F
:103FD0006535452EEAD1F8BD9401002010B586B0B4
:103FE00008200121FFF7FCFD4FF400100121FFF72D
:103FF00005FE4FF44073ADF8143003238DF81630EE
:104000001C238DF81730334805A9FEF75BFE00230B
:10401000ADF808304BF6FF72ADF80A20ADF80C3061
:104020004FF48063ADF80E304FF48043ADF810309C
:1040300006A9294B41F8143D284C204600F05AFEB1
:1040400009200121FFF7CCFD02200121FEF796FE99
:104050002046012100F0BAFE214A012302F8013F67
:1040600001339BB2B3F5FD7FF8D100221D4B1A70CE
:104070004FF4801300BF013BFCD10C20FFF74EFF33
:104080000620FFF74BFFFFF7EDFEFFF70BFF802049
:10409000FFF720FF134B187840F02100FFF71AFFBD
:1040A000FFF72AFFFFF7DEFEFFF7FCFE8020FFF799
:1040B00011FF1520FFF70EFFFFF71EFF4020FFF74F
:1040C0002DFF8020FFF72AFFFFF754FFFFF76AFF5D
:1040D00006B010BD000C0140A08601000054004055
:1040E0009301002090010020202820D864291ED8A8
:1040F00072B1C308652202FB03110D4B194400F095
:104100000700012303FA00F00B7918430871704788
:10411000C308652202FB0311054B194400F0070098
:10412000012303FA00F00B7923EA000008717047BD
:104130009001002020281FD864291DD8C3086522BB
:1041400002FB03110D4B0B441B7900F0070043FAEF
:1041500000F212F0010F07D1084A1144012202FABD
:1041600000F003430B717047044A1144012202FA24
:1041700000F023EA00030B71704700BF900100209C
:10418000F8B50D461E4617465AB10744FFB204461D
:10419000204629463246FFF7A7FF0134E4B2BC426D
:1041A000F6D1F8BDF8B505461E4617465AB10F447C
:1041B000FFB20C46284621463246FFF795FF0134F0
:1041C000E4B2BC42F6D1F8BD2DE9F041054688467F
:1041D00016461F469DF818401A462346FFF7E2FF91
:1041E000A819C0B241463A462346FFF7DBFF2846EE
:1041F000414632462346FFF7C3FF08EB0701721C16
:104200002846C9B2D2B22346FFF7BAFFBDE8F08113
:104210002DE9F04798469DF820701346D2B103442B
:104220005FFA83F9054608EB0106F6B28A460CE010
:10423000284621463A46FFF757FF0134E4B2B4421C
:10424000F6D10135EDB24D4504D0B8F1000FF8D0EC
:104250005446EDE7BDE8F0872DE9F8431F461346C5
:10426000BAB103445FFA83F805467E18F6B2894670
:104270000BE028462146FFF75DFF0134E4B2B4426B
:10428000F7D10135EDB2454503D0002FF9D04C46AA
:10429000EFE7BDE8F88300BF064B186002781A719B
:1042A00042785A7182789A71C278DA7102791A72F8
:1042B000704700BF680600202DE9F04F89B00590D7
:1042C0000691B3F1000B08BF4FF0010B814B197938
:1042D0009879121A01FB02F25B79082B2CBF184661
:1042E000082000FB02F2002AB8BF0732D2100532C4
:1042F0000392784A92F90820002A0DDB5F4603F00A
:10430000070202EBD303002B14BF0B4600230BFB69
:1043100003F3002B7ADCDAE003FB0BF3013B9BB2E7
:10432000049313F4004F40F0D280CDF81CB04FEA54
:10433000CB06F1B20291DFF8A09157E0019B591C26
:10434000019164490A68D75C002E27DD0025ECB294
:10435000B4FBFBF3C3F1070347FA03F313F0010FB8
:104360000CD00098204499F8FD21C0B24146D2F10A
:10437000010238BF0022FFF7B7FE0AE00AEB040093
:1043800099F8FD21C0B24146003218BF0122FFF763
:10439000ABFE01350134E4B2B442D8DB009B029A93
:1043A0001344DBB2009392445FFA8AFA0199039AAC
:1043B0008B1A5BB247490A79B3EBD20FBEDB01E03F
:1043C000039A019204990BB2079993FBF1F201FB56
:1043D000123313B1019A023A019204994B1E9BB217
:1043E000049313F4004F72D1019A039239490B7967
:1043F000DB08E5D0DDF814A0CDF800A0039BDDF8C4
:104400001880049988445FFA88F898E7002201929E
:104410000092304EDFF8C0A03368039913F8018092
:10442000737903FB07F3002B32DD069D0024DDF8D2
:104430001490009A91445FFA89F9337A13F0010FCE
:10444000B4FBFBF318BFC3F10703012202FA03F325
:1044500013EA080F0AD09AF8FD2148462946D2F1FE
:10446000010238BF0022FFF73FFE08E09AF8FD2165
:1044700048462946003218BF0122FFF735FE0134B5
:10448000E4B20135EDB2737907FB03F39C42D4DB50
:10449000019B93FBF7F207FB12327B1E9A4202D17B
:1044A000039901310391009A531C9BB2009301932D
:1044B0007379327903F0070101EBD303002B14BFAA
:1044C0001346002307FB03F300999942A4DB09B0CC
:1044D000BDE8F08F68060020900100202DE9F0472C
:1044E0000446884616461D461278F2B1DFF844901D
:1044F0000F4F4FF0010A204641462B46FFF7DCFEE6
:1045000099F8FD3143B1387900FB0540C0B241460E
:104510007A795346FFF746FE3B7903FB05440134A5
:10452000E4B216F8012F002AE5D1BDE8F08700BFFC
:104530006806002090010020F8B504460F46154695
:104540001E461046FCF79CFA0C4B1B7903FB00023D
:104550002244212A0ADC06FB03F3DB4300FB03F0C1
:10456000223000EBD07004EB6004E4B22046394600
:104570002A463346FFF7B2FFF8BD00BF68060020A9
:1045800070B588B006460D461C46104601A9FCF7DA
:1045900095FA3046294601AA2346FFF79FFF08B047
:1045A00070BD00BF30B589B005460C46104601A964
:1045B0001A46FCF785FB2846214601AA0123FFF78E
:1045C0008DFF09B030BD00BF70B588B005460C4600
:1045D0001E46104601A99DF83020FCF79BFA01A861
:1045E0003146FCF7DDFA2846214601AA9DF8343011
:1045F000FFF774FF08B070BD70B590B005460C466B
:104600001E4608A81146FCF7E1FA304601A9FCF75E
:1046100055FA08A801A9FCF7C3FA2846214608AABA
:104620000123FFF75BFF10B070BD00BF70B58CB009
:1046300005460C461E4605A81146FCF7C7FA30464B
:104640006946FCF73BFA05A86946FCF7A9FA05A8F4
:104650000549FCF7A5FA2846214605AA9DF84030F1
:10466000FFF73CFF0CB070BDEC85000810B4136878
:104670005C1C14600C16C45413685C1C14600C148D
:10468000C45413685C1C14600C12C45413685C1C82
:104690001460C1545DF8044B704700BF38B505463F
:1046A0001C460846114601F0F9FA01F0BDFC01462E
:1046B00028462246FFF7DAFF38BD00BF10B40B686A
:1046C000C45C1844427842EA042002330B6000B212
:1046D0005DF8044B704700BF10B40B68C45C18440D
:1046E000407802330B6040EA04205DF8044B7047C9
:1046F0000020044B18604FF43F43034A1380034AE1
:1047000013607047445C004064060020405C004039
:10471000034B1A6802F0380210431860704700BF5C
:1047200000200240044B1A6822F010021A601A6836
:1047300010431860704700BF00200240704700BF60
:10474000FEE700BFFEE700BFFEE700BFFEE700BFD9
:10475000704700BF704700BF704700BF08B500F04A
:10476000CBFB08BD08B50320FEF7D6F90246064B81
:1047700019680144196005484FF4887100F0ACFBDA
:104780000320FEF711F908BD9003002074060020F5
:104790000022014B5A6070479003002040F0BF6038
:1047A00040F40030014BD860704700BF00ED00E0DE
:1047B00010B4C378FBB1174BDB68DB43C3F30223B0
:1047C000C3F10402417801FA02F20F21D940847842
:1047D0002140114302780901C9B20F4B1A4482F8F3
:1047E00000130278510902F01F02012000FA02F2C0
:1047F00043F821200AE00378590903F01F0301223E
:1048000002FA03F32031044A42F821305DF8044BE8
:10481000704700BF00ED00E000E100E02DE9F0414D
:104820000F4690461C46069D01F02EF90646284686
:10483000214601F029F90146304601F02FFA0646DB
:104840004046394601F020F90146304601F0DAFAD7
:10485000214601F01BF906462846314601F0BCFB13
:1048600038B92046314601F0D5FB28B12046BDE8D5
:10487000F0812846BDE8F0813046BDE8F08100BFF8
:1048800010B50124164B1C62FDF76EFB3220FEF7BB
:1048900099FC73201221FDF7EDFD02200321FDF7A5
:1048A00079FC02200021FDF725FC1C200021FDF7EA
:1048B00021FC04203721FDF71DFC1D200721FDF7F9
:1048C00019FC20462146FDF715FC02202146FDF784
:1048D00011FC1C202146FDF70DFCFDF799FC10BDD5
:1048E000B40600200000000070B58CB001230393D3
:1048F00000238DF81030784B1B6813B940238DF8D6
:104900001030764B188802B20A2A17DD9DF8102065
:1049100042F001020CAC04F8202D00B201F06AF95B
:1049200000236F4A009219466E4AFFF777FF01464F
:1049300020466D4A03ABFFF7B1FE9DE06B4B188834
:1049400002B20A2A40F39280694A12782AB19DF88D
:10495000102062F07F028DF81020664A1278062A35
:104960007DD8DFE802F0041D4A7C7C7C63009DF862
:10497000102042F002020CAC04F8202D00B201F02D
:1049800039F900235C4A126800921946554AFFF72C
:1049900045FF01462046544A03ABFFF77FFE6BE01C
:1049A0009DF8102042F008020CAC04F8202D00B253
:1049B00001F020F9064600254F4B586800F0FAFC3C
:1049C00043A3D3E9002300F049FD00224B4B00F044
:1049D00045FD00224A4B00F041FD01F001F8009036
:1049E000304629463F4A2B46FFF718FF014620462E
:1049F0003D4A03ABFFF752FE3EE09DF8102042F027
:104A000004020CAC04F8202D00B201F0F3F80023EE
:104A1000394A926800921946324AFFF7FFFE014672
:104A20002046314A03ABFFF739FE25E09DF8102000
:104A300042F010020CAC04F8202D00B201F0DAF8BC
:104A400000232D4AD26800921946264AFFF7E6FE57
:104A500001462046244A03ABFFF720FE0CE004A8E1
:104A60000021214A03ABFFF719FE05E004A800214D
:104A70001D4A03ABFFF712FE0425224C04A89DF843
:104A80000C10FDF725FDFDF7F3FB2077FF28FAD08A
:104A900018B96B1E13F0FF05F0D11B480421FEF777
:104AA00069F91A4B1968174B114A5068081A98622D
:104AB00051601B7F23B9134B5A6A01325A6203E0DB
:104AC000104B1A6A01321A62FDF7A2FB0CB070BDDE
:104AD0001904560E2DF23240C00000207E01002045
:104AE0000000A0410000C84200007A44800100207C
:104AF0009803002009070020F400002000001C405B
:104B000000002440B4060020000C01407001002089
:104B100030B58BB0012301930AA8402300F8203D53
:104B200000210F4A01ABFFF7B9FD14250D4C02A877
:104B30009DF80410FDF7CCFCFDF79AFB2077FF28C9
:104B4000FAD038B96B1E13F0FF0503D00520FEF72D
:104B500039FBECE704480421FEF70CF90BB030BD3B
:104B600000007A44B4060020000C01400000000060
:104B7000F0B583B043F698223D4B1A600D4641B123
:104B800000233C4EC45C9A1982F830400133AB429A
:104B9000F8D1384B83F85010044614F8013B00223A
:104BA0000192012B48D013B1022B49D057E0204687
:104BB00001A9FFF783FD2F4D01F01CF800F0FAFB6F
:104BC00029A3D3E9002300F073FD00F0E1FE288063
:104BD000204601A9FFF772FD6881204601A9FFF771
:104BE0006DFD2881019AA65C6E73A31859786975CA
:104BF0009978297504320192DB782B7300F0FAFF63
:104C00000746304600F0F2FF0146384601F046F80C
:104C100000F0D0FB0022184B00F04AFD00F0B8FE77
:104C2000A880204601A9FFF757FD2883204601A947
:104C3000FFF752FD688312E000220D4B1A600EE070
:104C40000E4B1A7801321A70019B18440C4B991DB7
:104C500010F8012F383A03F8012F8B42F8D103B036
:104C6000F0BD00BFAFF300801904560E2DF23240A4
:104C7000C0000020B40600200000594008070020B2
:104C8000C1060020AFF3008010B4028802F4415244
:104C90004C880B8823438C882343CC8823430C897E
:104CA00023434C8923438C892343CC8923431343D7
:104CB0009BB20380838B23F400631B041B0C838350
:104CC0000B8A03825DF8044B704700BF29B103884B
:104CD0009BB243F0400303807047038823F04003F6
:104CE0001B041B0C03807047038919420CBF002072
:104CF00001207047F0B587B004460D46868826F03F
:104D00003F063604360C01A8FEF710FF03992C4825
:104D1000A0FB0130800C87B23E43A680238823F09D
:104D200001031B041B0C23802A68264B9A4209D8D6
:104D30005300B1FBF3F39BB2032B98BF042301375D
:104D4000278424E0EE884BF6FF739E4205D102EBE8
:104D50004202B1FBF2F39BB208E002EB820202EBEB
:104D60008202B1FBF2F39BB243F48043C3F30B0224
:104D70000AB943F0010343F400434FF4967200FB79
:104D800002F0114A82FB0010801101302084A383BD
:104D900023889BB243F001032380228892B222F43D
:104DA000816222F002026989AB880B4313439BB2F4
:104DB00023802A89AB8913439BB2238107B0F0BDBE
:104DC00083DE1B43A0860100D34D621029B1038806
:104DD0009BB243F0010303807047038823F0010373
:104DE0001B041B0C0380704729B103889BB243F45A
:104DF000807303807047038823F480731B041B0CAB
:104E00000380704729B103889BB243F40073038089
:104E10007047038823F400731B041B0C0380704746
:104E200029B103889BB243F48063038070470388F1
:104E300023F480631B041B0C0380704701827047BE
:104E400012B141F0010101E001F0FE010182704761
:104E5000828A92B2008B21F07F4342EA00401840E0
:104E6000814214BF00200120704700BF82B00023A0
:104E70000193009300900B0F019321F07F41019B60
:104E80001BB1009B1433009303E0090C009B183303
:104E90000093009B1B6819420CBF0020012002B048
:104EA000704700BF10B4013201F1005101F54051CB
:104EB000490053100DD00A1D023010F8014C10F8B3
:104EC000021C41EA042122F8041C04320230013B96
:104ED000F3D15DF8044B7047013201F1005101F547
:104EE00040514900531005D051F8042B20F8022BF3
:104EF000013BF9D1704700BF10B588B0644B1A6808
:104F000092B2644B1A801A88634B1B88134003F4D7
:104F100000439BB20BB1FDF739FB5E4B1A885E4B29
:104F20001B88134003F480639BB233B14FF6FF320A
:104F3000574B1A60594B5B689847564B1A88564B2B
:104F40001B88134003F400539BB21BB14DF6FF7254
:104F50004F4B1A604F4B1A884F4B1B88134003F47A
:104F600080539BB233B14EF6FF72494B1A6000205A
:104F7000FEF7B6F8474B1A88474B1B88134003F4DB
:104F800000639BB273B1464B1B7813F0FF0F02D046
:104F9000FEF784F802E00220FEF7A2F84FF2FF725B
:104FA0003B4B1A603B4B1A883B4B1B88134003F466
:104FB00000739BB243B14FF6FF52354B1A60394B29
:104FC0001A780132D2B21A70324B1A88324B1B88CF
:104FD000134003F480739BB2002B56D04FF6FF6250
:104FE0002B4B1A6004331B6813F4004F47D02D4B32
:104FF0005A6801325A605B68032B43D92A4B1B68FD
:1050000013F0080F3ED1284B1A6892B2254B9A60D4
:10501000264A002352F8040B80B208AC04EB83014B
:1050200041F8200C0133082BF4D11E4B9A6842F052
:1050300001029A60996889B21B4A1160996821F04F
:10504000010199609B689BB213600432136813F4EA
:10505000806FFBD04FF6FF320D4B1A60134A0023CE
:1050600008A800EB830151F8201C89B242F8041B08
:105070000133082BF4D100220A4B5A6002E00022CF
:10508000084B5A600720FEF72BF808B010BD00BF90
:10509000445C00400A070020640600203400002021
:1050A000BC000020A0030020405C0040005C0040E9
:1050B00082B000230193044B0193019B184401909B
:1050C000019B196002B07047006C004082B0002361
:1050D0000193054B0193019B18440190019B188893
:1050E00080B202B0704700BF006C004081F0004108
:1050F00002E000BF83F0004330B54FEA41044FEABD
:10510000430594EA050F08BF90EA020F1FBF54EA57
:10511000000C55EA020C7FEA645C7FEA655C00F0F3
:10512000E2804FEA5454D4EB5555B8BF6D420CDDC4
:105130002C4480EA020281EA030382EA000083EA47
:10514000010180EA020281EA0303362D88BF30BDE7
:1051500011F0004F4FEA01314FF4801C4CEA11313D
:1051600002D0404261EB410113F0004F4FEA03339C
:105170004CEA133302D0524263EB430394EA050F27
:1051800000F0A780A4F10104D5F1200E0DDB02FA96
:105190000EFC22FA05F2801841F1000103FA0EF22A
:1051A000801843FA05F359410EE0A5F120050EF1F0
:1051B000200E012A03FA0EFC28BF4CF0020C43FA21
:1051C00005F3C01851EBE37101F0004507D54FF02E
:1051D000000EDCF1000C7EEB00006EEB0101B1F57E
:1051E000801F1BD3B1F5001F0CD349085FEA3000C4
:1051F0004FEA3C0C04F101044FEA445212F5800FCF
:1052000080F09A80BCF1004F08BF5FEA500C50F16B
:10521000000041EB045141EA050130BD5FEA4C0C4E
:10522000404141EB010111F4801FA4F10104E9D1D7
:1052300091F0000F04BF01460020B1FA81F308BFCE
:105240002033A3F10B03B3F120020CDA0C3208DD9A
:1052500002F1140CC2F10C0201FA0CF021FA02F175
:105260000CE002F11402D8BFC2F1200C01FA02F1E5
:1052700020FA0CFCDCBF41EA0C019040E41AA2BF0A
:1052800001EB0451294330BD6FEA04041F3C1CDAD2
:105290000C340EDC04F11404C4F1200220FA04F0F2
:1052A00001FA02F340EA030021FA04F345EA03019C
:1052B00030BDC4F10C04C4F1200220FA02F001FA5E
:1052C00004F340EA0300294630BD21FA04F02946E0
:1052D00030BD94F0000F83F4801306BF81F4801179
:1052E0000134013D4EE77FEA645C18BF7FEA655CEC
:1052F00029D094EA050F08BF90EA020F05D054EABE
:10530000000C04BF1946104630BD91EA030F1EBFC2
:105310000021002030BD5FEA545C05D140004941C6
:1053200028BF41F0004130BD14F580043CBF01F5B9
:10533000801130BD01F0004545F0FE4141F470019F
:105340004FF0000030BD7FEA645C1ABF194610467A
:105350007FEA655C1CBF0B46024650EA013406BF7B
:1053600052EA033591EA030F41F4002130BD00BF3A
:1053700090F0000F04BF0021704730B54FF48064F7
:1053800004F132044FF000054FF0000150E700BF78
:1053900090F0000F04BF0021704730B54FF48064D7
:1053A00004F1320410F0004548BF40424FF00001C4
:1053B0003EE700BF42004FEAE2014FEA31014FEA07
:1053C00002701FBF12F07F4393F07F4F81F0605156
:1053D000704792F0000F14BF93F07F4F704730B5C5
:1053E0004FF4607401F0004521F0004120E700BF58
:1053F00050EA010208BF704730B54FF000050AE0DF
:1054000050EA010208BF704730B511F0004502D5DF
:10541000404261EB41014FF4806404F132045FEAE1
:10542000915C3FF4DCAE4FF003025FEADC0C18BF86
:1054300003325FEADC0C18BF033202EBDC02C2F17C
:10544000200300FA03FC20FA02F001FA03FE40EA0E
:105450000E0021FA02F11444C1E600BF70B54FF00E
:10546000FF0C4CF4E06C1CEA11541DBF1CEA1355F0
:1054700094EA0C0F95EA0C0F00F0DEF82C4481EA58
:10548000030621EA4C5123EA4C5350EA013518BF78
:1054900052EA033541F4801143F4801338D0A0FB65
:1054A00002CE4FF00005E1FB02E506F00042E0FB12
:1054B00003E54FF00006E1FB03569CF0000F18BF18
:1054C0004EF0010EA4F1FF04B6F5007F64F54074C0
:1054D00004D25FEA4E0E6D4146EB060642EAC62153
:1054E00041EA55514FEAC52040EA5E504FEACE2EC0
:1054F000B4F1FD0C88BFBCF5E06F1ED8BEF1004FC3
:1055000008BF5FEA500E50F1000041EB045170BD3E
:1055100006F0004646EA010140EA020081EA030182
:10552000B4EB5C04C2BFD4EB0C0541EA045170BD7E
:1055300041F480114FF0000E013C00F3AB8014F1F8
:10554000360FDEBF002001F0004170BDC4F1000441
:10555000203C35DA0C341BDC04F11404C4F12005C2
:1055600000FA05F320FA04F001FA05F240EA02001D
:1055700001F0004221F0004110EBD37021FA04F653
:1055800042EB06015EEA430E08BF20EAD37070BD0D
:10559000C4F10C04C4F1200500FA04F320FA05F06C
:1055A00001FA04F240EA020001F0004110EBD3706E
:1055B00041F100015EEA430E08BF20EAD37070BDDE
:1055C000C4F1200500FA05F24EEA020E20FA04F3B7
:1055D00001FA05F243EA020321FA04F001F0004166
:1055E00021FA04F220EA020000EBD3705EEA430ED7
:1055F00008BF20EAD37070BD94F0000F0FD101F006
:105600000046400041EB010111F4801F08BF013C3E
:10561000F7D041EA060195F0000F18BF704703F07C
:105620000046520043EB030313F4801F08BF013D03
:10563000F7D043EA0603704794EA0C0F0CEA1355BF
:1056400018BF95EA0C0F0CD050EA410618BF52EA79
:105650004306D1D181EA030101F000414FF000007F
:1056600070BD50EA410606BF1046194652EA43068D
:1056700019D094EA0C0F02D150EA013613D195EA01
:105680000C0F05D152EA03361CBF104619460AD149
:1056900081EA030101F0004141F0FE4141F4700153
:1056A0004FF0000070BD41F0FE4141F4780170BD43
:1056B00070B54FF0FF0C4CF4E06C1CEA11541DBFA8
:1056C0001CEA135594EA0C0F95EA0C0F00F0A7F8AA
:1056D000A4EB050481EA030E52EA03354FEA0131D7
:1056E00000F088804FEA03334FF0805545EA1313EA
:1056F00043EA12634FEA022245EA111545EA1065B2
:105700004FEA00260EF000419D4208BF964244F148
:10571000FD0404F5407402D25B084FEA3202B61A67
:1057200065EB03055B084FEA32024FF480104FF43B
:10573000002CB6EB020E75EB030E22BFB61A7546AF
:1057400040EA0C005B084FEA3202B6EB020E75EB42
:10575000030E22BFB61A754640EA5C005B084FEAAA
:105760003202B6EB020E75EB030E22BFB61A754677
:1057700040EA9C005B084FEA3202B6EB020E75EB82
:10578000030E22BFB61A754640EADC0055EA060E43
:1057900018D04FEA051545EA16754FEA06164FEA86
:1057A000C30343EA52734FEAC2025FEA1C1CC0D132
:1057B00011F4801F0BD141EA00014FF000004FF0BF
:1057C000004CB6E711F4801F04BF01430020B4F180
:1057D000FD0C88BFBCF5E06F3FF6AFAEB5EB030C38
:1057E00004BFB6EB020C5FEA500C50F1000041EB35
:1057F000045170BD0EF0004E4EEA113114EB5C0402
:10580000C2BFD4EB0C0541EA045170BD41F48011D4
:105810004FF0000E013C90E645EA060E8DE60CEADC
:10582000135594EA0C0F08BF95EA0C0F3FF43BAFF9
:1058300094EA0C0F0AD150EA01347FF434AF95EAB0
:105840000C0F7FF425AF104619462CE795EA0C0F94
:1058500006D152EA03353FF4FDAE1046194622E761
:1058600050EA410618BF52EA43067FF4C5AE50EA3B
:1058700041047FF40DAF52EA43057FF4EBAE12E72B
:105880004FF0FF3C06E000BF4FF0010C02E000BF0C
:105890004FF0010C4DF804CD4FEA410C7FEA6C5CEF
:1058A0004FEA430C18BF7FEA6C5C1BD001B050EA92
:1058B000410C0CBF52EA430C91EA030F02BF90EA7D
:1058C000020F0020704710F1000F91EA030F58BF3C
:1058D000994208BF90422CBFD8176FEAE37040F09E
:1058E000010070474FEA410C7FEA6C5C02D150EA3C
:1058F000013C07D14FEA430C7FEA6C5CD6D152EAF7
:10590000033CD3D05DF8040B704700BF84461046BB
:1059100062468C461946634600E000BF01B5FFF7BA
:10592000B7FF002848BF10F1000F01BD4DF808ED8A
:10593000FFF7F4FF0CBF012000205DF808FB00BF5B
:105940004DF808EDFFF7EAFF34BF012000205DF8B5
:1059500008FB00BF4DF808EDFFF7E0FF94BF012002
:1059600000205DF808FB00BF4DF808EDFFF7CEFF03
:1059700094BF012000205DF808FB00BF4DF808ED42
:10598000FFF7C4FF34BF012000205DF808FB00BF13
:105990004FEA410212F5001215D211D56FF4787357
:1059A000B3EB625212D94FEAC12343F0004343EAFA
:1059B000505311F0004F23FA02F018BF40427047D5
:1059C0004FF00000704750EA013005D111F000405F
:1059D00008BF6FF0004070474FF00000704700BFF5
:1059E0004FEA4102B2F1E04324BFB3F5001CDCF101
:1059F000FE5C0DD901F0004C4FEAC0024CEA507039
:105A0000B2F1004F40EB830008BF20F00100704767
:105A100011F0804F21D113F13872BCBF01F000406A
:105A2000704741F480114FEA5252C2F11802C2F19C
:105A3000200C10FA0CF320FA02F018BF40F001001D
:105A40004FEAC1234FEAD32303FA0CFC40EA0C00CF
:105A500023FA02F34FEA4303CCE77FEA625307D10C
:105A600050EA01331EBF4FF0FE4040F44000704743
:105A700001F0004040F0FE4040F40000704700BFDD
:105A800080F0004002E000BF81F0004142001FBFF3
:105A90005FEA410392EA030F7FEA226C7FEA236CFC
:105AA0006AD04FEA1262D2EB1363C1BFD2184140F1
:105AB00048404140B8BF5B42192B88BF704710F087
:105AC000004F40F4000020F07F4018BF404211F02A
:105AD000004F41F4000121F07F4118BF494292EA92
